:100000000C9446000C9465000C9465000C946500FB
:100010000C9465000C9465000C9465000C946500CC
:100020000C9465000C9465000C9465000C946500BC
:100030000C9465000C9492000C9465000C9465007F
:100040000C9465000C9465000C9465000C9465009C
:100050000C9465000C9465000C9465000C9465008C
:100060000C9465000C9465000C9465000C9465007C
:100070000C9465000C9465000C9465000C9465006C
:100080000C9465000C9465000C94650011241FBE4F
:10009000CFEFD0E4DEBFCDBF11E0A0E0B1E0E4E4FB
:1000A000F3E000E00BBF02C007900D92A430B1074F
:1000B000D9F721E0A4E0B1E001C01D92AB30B20756
:1000C000E1F70E9485010C94A0010C9400008BE0E4
:1000D000809381008DE790E0909389008093880061
:1000E00082E080936F0010928500109284008091CE
:1000F000000190910101A0910201B0910301809350
:10010000040190930501A0930601B09307018FB7F6
:1001100080688FBF089510928100089581E08093D8
:10012000080108951F920F920FB60F9211240BB67B
:100130000F922F933F934F935F936F937F938F9380
:100140009F93AF93BF93EF93FF938091040190919E
:100150000501A0910601B09107010197A109B1091C
:100160008093040190930501A0930601B0930701C9
:10017000892B8A2B8B2B99F0FF91EF91BF91AF9137
:100180009F918F917F916F915F914F913F912F91AF
:100190000F900BBE0F900FBE0F901F9018950E94EE
:1001A0008E008091000190910101A0910201B09117
:1001B00003018093040190930501A0930601B0937D
:1001C0000701DACF6093000170930101809302016F
:1001D00090930301609304017093050180930601DD
:1001E0009093070108958091090190910A0183304D
:1001F000910509F452C058F581309105B9F182306A
:10020000910549F4009942C084E090E090930A017E
:100210008093090109C0892B09F066C081E090E054
:1002200090930A01809309018091090190910A013C
:100230008230910509F466C008F05CC0009709F4AB
:100240005FC0019709F055C081E085B908958430F9
:10025000910599F1059709F047C000993EC081E0EA
:1002600090E090930A0180930901DECF009907C0C6
:1002700084E090E090930A0180930901D5CF82E059
:1002800090E090930A0180930901CECF83E090E043
:1002900090930A0180930901C7CF009907C084E0B9
:1002A00090E090930A0180930901BECF81E090E035
:1002B00090930A0180930901B7CF009907C084E0A9
:1002C00090E090930A0180930901AECF85E090E021
:1002D00090930A0180930901A7CF85E090E0909365
:1002E0000A0180930901A0CF10920A01109209011E
:1002F0009BCF0895039719F484E085B90895089574
:1003000015B8089582E085B9089511B88FEF82B9C4
:1003100084B915B810920A01109209016CE271E0DB
:1003200080E090E00E94E2000E94670002C010920C
:1003300008010E94F300809108018823E1F3F7CFC0
:04034000F894FFCF5F
:0403440001000000B4
:00000001FF
